:1000000057EF00F0FF00FF002B002B002B002B0010
:100010002B002B002B0095082B002B002B002B0016
:100020002B002B002B002B002B002B002B002B0078
:100030002B002B002B002B002B002B002B002B0068
:100040002B002B002B002B002B002B002B002B0058
:100050002B002B002B002B002B002B002B002B0048
:100060002B002B002B002B002B002B002B002B0038
:100070002B002B002B002B002B002B002B002B0028
:100080002B002B002B002B002B002B002B002B0018
:100090002B002B002B002B002B002B002B002B0008
:1000A0002B002B002B002B002B002B00FF0008EF58
:1000B00012F0FF00FF00FF00FF00FF00FF00FF0045
:10200000003F065B4F666D7D077F6F0051EC12F05D
:10201000166E47EC12F0176E0950D8B412EF10F09C
:1020200014EF10F015EF10F009060850D8B41BEFAC
:1020300010F01DEF10F08AEF10F008068AEF10F094
:102040001650D8B426EF10F028EF10F049EF10F03A
:102050000750D8A42EEF10F030EF10F049EF10F039
:102060000950D8A436EF10F038EF10F049EF10F017
:10207000040E0B603EEF10F040EF10F044EF10F054
:102080000B2A0B50ACEC11F0046A000E036E060E26
:10209000096E0B50D8B44FEF10F051EF10F09FEFD6
:1020A00010F0034A042A9FEF10F01750D8B45BEFEA
:1020B00010F05DEF10F07EEF10F00650D8A463EF43
:1020C00010F065EF10F07EEF10F00850D8A46BEF21
:1020D00010F06DEF10F07EEF10F0040E0A6073EF59
:1020E00010F075EF10F079EF10F00A2A0A50ACECFE
:1020F00011F0026A000E016E060E086E0A50D8B486
:1021000084EF10F086EF10F09FEF10F0014A022AE2
:102110009FEF10F00550146E156A1550000AD8B4E0
:1021200094EF10F09FEF10F01450000AD8B420EF95
:1021300010F0010AD8B455EF10F09FEF10F016C060
:1021400007F017C006F0120003EF11F00B50D8B4DF
:10215000ACEF10F0AEEF10F028EF11F0045009E1F1
:10216000960E035CD8A0B7EF10F0B9EF10F028EF8F
:1021700011F0C8EC11F0010E056E026A000E016E3E
:1021800028EF11F00A50D8B4C8EF10F0CAEF10F0E1
:1021900028EF11F0025009E1960E015CD8A0D3EFB0
:1021A00010F0D5EF10F028EF11F0C8EC11F0020E8E
:1021B000056E28EF11F0030E0B18D8A4E2EF10F013
:1021C000E4EF10F0F1EF10F0020E0A18D8A4EBEFD4
:1021D00010F0EDEF10F0F1EF10F0030E056E28EFA8
:1021E00011F0040E056E28EF11F017EC12F065ECFB
:1021F00012F028EF11F06FEC12F0F7EF10F074EC22
:1022000012F028EF11F00550146E156A1550000AEF
:10221000D8B40DEF11F0F7EF10F01450000AD8B455
:10222000A6EF10F0010AD8B4C2EF10F0030AD8B438
:10223000DBEF10F0010AD8B4F5EF10F0070AD8B4BC
:10224000FBEF10F0010AD8B4FFEF10F0F7EF10F039
:102250001200FF003901A0AF30EF11F032EF11F0A2
:102260008AEF11F03A0157A138EF11F03AEF11F06F
:102270008AEF11F057913901A09F010E0C6E050EE7
:10228000056E0F6A84EC12F0C30E0D6ECD0EE82EB3
:10229000FED70D2EFCD7000086EC12F0820E0D6EDC
:1022A000DE0EE82EFED70D2EFCD70F2A010E0F648E
:1022B0005CEF11F05EEF11F042EF11F0020E0E6EC6
:1022C000450E0D6EAA0EE82EFED70D2EFCD70E2E53
:1022D000FAD7106A84EC12F0020E0E6EC70E0D6E65
:1022E000880EE82EFED70D2EFCD70E2EFAD700D082
:1022F00086EC12F0820E0D6EDE0EE82EFED70D2E4D
:10230000FCD7102A1050D8B488EF11F08AEF11F0E2
:102310006AEF11F0110031EC12F065EC12F078EC7C
:1023200012F00C50D8B497EF11F099EF11F09DEF27
:1023300011F074EC12F091EF11F006EC10F0A4EC37
:1023400010F00D0E186EFC0EE82EFED7182EFCD7DE
:1023500091EF11F057EF00F0136E126A0A0E13603E
:10236000B4EF11F0B6EF11F0C4EF11F01350010FFC
:10237000116E600047F0F6FF200EF76E000EF86E4B
:1023800008006F00D4FF12F060004BF0BDFF120098
:10239000136A80EC12F0126A780E116EE1EC11F003
:1023A00082EC12F0126A780E116EE1EC11F0132A31
:1023B000010E1364DEEF11F0E0EF11F0C9EF11F040
:1023C0001200E7EF11F0C80E00D0E82EFDD711067D
:1023D000D8A01206112806E11228D8A4F2EF11F0B5
:1023E000F4EF11F0E3EF11F012003A01406B506B83
:1023F000606B706BBA6ABB6ABC6ABD6ABB94C29000
:10240000C282C284C380C392C394C56A5181120040
:1024100000EE01F00C0EEE6AE806FDE1080ED56E46
:10242000000ED66E000ED76E00018BEF11F07AEC25
:1024300012F0070E126ED00E116EE1EC11F07EEC70
:1024400012F07CEC12F012000B6A0A6A046A000EA9
:10245000036E026A000E016E096A086A076A066A5C
:102460001200F5EC11F05BEC12F07EEC12F082EC55
:1024700012F07CEC12F0120080EC12F0070E126EDB
:10248000D00E116EE1EC11F082EC12F01200CAA431
:102490004CEF12F04FEF12F0010E50EF12F0000E61
:1024A0001200CAA256EF12F059EF12F0010E5AEFC5
:1024B00012F0000E12003A015681559157913901E0
:1024C000A09F908FD28ED28C120024EC12F0056A5D
:1024D0007CEC12F07EEC12F082EC12F012003CEC7C
:1024E00012F07CEC12F012000C6A65EC12F0120093
:1024F000BA801200BB921200BD6A1200BB821200A9
:10250000BB841200BB941200BB841200BB94120067
:020000040030CA
:0A000000F8FFFFFF9FFFFFFFFFFF67
:00000001FF
