:1000000057EF00F0FF00FF002B002B002B002B0010
:100010002B002B002B0093082B002B002B002B0018
:100020002B002B002B002B002B002B002B002B0078
:100030002B002B002B002B002B002B002B002B0068
:100040002B002B002B002B002B002B002B002B0058
:100050002B002B002B002B002B002B002B002B0048
:100060002B002B002B002B002B002B002B002B0038
:100070002B002B002B002B002B002B002B002B0028
:100080002B002B002B002B002B002B002B002B0018
:100090002B002B002B002B002B002B002B002B0008
:1000A0002B002B002B002B002B002B00FF00EAEF76
:1000B00011F0FF00FF00FF00FF00FF00FF00FF0046
:10200000003F065B4F666D7D077F6F001DEC12F091
:10201000166E13EC12F0176E0950D8B412EF10F0D0
:1020200014EF10F015EF10F009060850D8B41BEFAC
:1020300010F01DEF10F08AEF10F008068AEF10F094
:102040001650D8B426EF10F028EF10F049EF10F03A
:102050000750D8A42EEF10F030EF10F049EF10F039
:102060000950D8A436EF10F038EF10F049EF10F017
:10207000040E0B603EEF10F040EF10F044EF10F054
:102080000B2A0B50A8EC11F0046A000E036E060E2A
:10209000096E0B50D8B44FEF10F051EF10F09FEFD6
:1020A00010F0034A042A9FEF10F01750D8B45BEFEA
:1020B00010F05DEF10F07EEF10F00650D8A463EF43
:1020C00010F065EF10F07EEF10F00850D8A46BEF21
:1020D00010F06DEF10F07EEF10F0040E0A6073EF59
:1020E00010F075EF10F079EF10F00A2A0A50A8EC02
:1020F00011F0026A000E016E060E086E0A50D8B486
:1021000084EF10F086EF10F09FEF10F0014A022AE2
:102110009FEF10F00550146E156A1550000AD8B4E0
:1021200094EF10F09FEF10F01450000AD8B420EF95
:1021300010F0010AD8B455EF10F09FEF10F016C060
:1021400007F017C006F01200FFEF10F00B50D8B4E4
:10215000ACEF10F0AEEF10F024EF11F0045009E1F5
:10216000960E035CD8A0B7EF10F0B9EF10F024EF93
:1021700011F0010E056E026A000E016E24EF11F0DF
:102180000A50D8B4C6EF10F0C8EF10F024EF11F0E9
:10219000025009E1960E015CD8A0D1EF10F0D3EF08
:1021A00010F024EF11F0020E056E24EF11F0030E73
:1021B0000B18D8A4DEEF10F0E0EF10F0EDEF10F008
:1021C000020E0A18D8A4E7EF10F0E9EF10F0EDEFD7
:1021D00010F0030E056E24EF11F0040E056E24EFCF
:1021E00011F046EC12F03AEC12F024EF11F0F9EC99
:1021F00011F0F3EF10F042EC12F024EF11F0055063
:10220000136E146A1450000AD8B409EF11F0F3EFFA
:1022100010F01350000AD8B4A6EF10F0010AD8B499
:10222000C0EF10F0030AD8B4D7EF10F0010AD8B409
:10223000F1EF10F0070AD8B4F7EF10F0010AD8B4A4
:10224000FBEF10F0F3EF10F01200FF003901A0AF28
:102250002CEF11F02EEF11F086EF11F03A0157A19B
:1022600034EF11F036EF11F086EF11F0579139018C
:10227000A09F010E0C6E050E056E0F6A51EC12F058
:10228000C30E0D6ECD0EE82EFED70D2EFCD700002E
:1022900053EC12F0820E0D6EDE0EE82EFED70D2EE0
:1022A000FCD70F2A010E0F6458EF11F05AEF11F00E
:1022B0003EEF11F0020E0E6E450E0D6EAA0EE82EC8
:1022C000FED70D2EFCD70E2EFAD7106A51EC12F065
:1022D000020E0E6EC70E0D6E880EE82EFED70D2E66
:1022E000FCD70E2EFAD700D053EC12F0820E0D6EF2
:1022F000DE0EE82EFED70D2EFCD7102A1050D8B4D3
:1023000084EF11F086EF11F066EF11F0110031EC5F
:1023100012F03AEC12F049EC12F00C50D8B493EFF2
:1023200011F095EF11F099EF11F042EC12F08DEFF2
:1023300011F006EC10F0A4EC10F00D0E186EFC0E6F
:10234000E82EFED7182EFCD78DEF11F057EF00F0D6
:10235000136E126A0A0E1360B0EF11F0B2EF11F0B3
:10236000C0EF11F01350010F116E600047F0F6FF3F
:10237000200EF76E000EF86E08006F00D4FF12F00A
:1023800060004BF0BDFF1200CAEF11F0C80E00D084
:10239000E82EFDD71106D8A01206112806E1122852
:1023A000D8A4D5EF11F0D7EF11F0C6EF11F012005D
:1023B0003A01406B506B606B706BBA6ABB6ABC6A67
:1023C000BD6AC290C282C284C380C392C490C56AEF
:1023D0005181120000EE01F00C0EEE6AE806FDE1FC
:1023E000080ED56E000ED66E000ED76E000187EF78
:1023F00011F04BEC12F0070E126ED00E116EC4EC01
:1024000011F04FEC12F04DEC12F012000B6A0A6A58
:10241000046A000E036E026A000E016E096A086A01
:10242000076A066A1200CAA418EF12F01BEF12F036
:10243000010E1CEF12F0000E1200CAA222EF12F0E1
:1024400025EF12F0010E26EF12F0000E12003A01F5
:102450005681559157913901A09F908FD28ED28C81
:102460001200D8EC11F027EC12F04FEC12F04DEC0A
:1024700012F0120006EC12F0056A4DEC12F04FEC6F
:1024800012F012000C6A3AEC12F012004DEC12F04D
:102490001200BA801200BB921200BD6A1200BB8209
:1024A0001200BB921200BB821200FF00FF00FF006F
:020000040030CA
:0A000000F8FFFFFF9FFFFFFFFFFF67
:00000001FF
