:1000000057EF00F0FF00FF002B002B002B002B0010
:100010002B002B002B0095082B002B002B002B0016
:100020002B002B002B002B002B002B002B002B0078
:100030002B002B002B002B002B002B002B002B0068
:100040002B002B002B002B002B002B002B002B0058
:100050002B002B002B002B002B002B002B002B0048
:100060002B002B002B002B002B002B002B002B0038
:100070002B002B002B002B002B002B002B002B0028
:100080002B002B002B002B002B002B002B002B0018
:100090002B002B002B002B002B002B002B002B0008
:1000A0002B002B002B002B002B002B00FF002FEF31
:1000B00012F0FF00FF00FF00FF00FF00FF00FF0045
:10200000003F065B4F666D7D077F6F006BEC12F043
:10201000166E61EC12F0176E0950D8B412EF10F082
:1020200014EF10F015EF10F009060850D8B41BEFAC
:1020300010F01DEF10F08AEF10F008068AEF10F094
:102040001650D8B426EF10F028EF10F049EF10F03A
:102050000750D8A42EEF10F030EF10F049EF10F039
:102060000950D8A436EF10F038EF10F049EF10F017
:10207000040E0B603EEF10F040EF10F044EF10F054
:102080000B2A0B50D3EC11F0046A000E036E060EFF
:10209000096E0B50D8B44FEF10F051EF10F09FEFD6
:1020A00010F0034A042A9FEF10F01750D8B45BEFEA
:1020B00010F05DEF10F07EEF10F00650D8A463EF43
:1020C00010F065EF10F07EEF10F00850D8A46BEF21
:1020D00010F06DEF10F07EEF10F0040E0A6073EF59
:1020E00010F075EF10F079EF10F00A2A0A50D3ECD7
:1020F00011F0026A000E016E060E086E0A50D8B486
:1021000084EF10F086EF10F09FEF10F0014A022AE2
:102110009FEF10F00550146E156A1550000AD8B4E0
:1021200094EF10F09FEF10F01450000AD8B420EF95
:1021300010F0010AD8B455EF10F09FEF10F016C060
:1021400007F017C006F0120003EF11F00B50D8B4DF
:10215000ACEF10F0AEEF10F028EF11F0045009E1F1
:10216000960E035CD8A0B7EF10F0B9EF10F028EF8F
:1021700011F0EFEC11F0010E056E026A000E016E17
:1021800028EF11F00A50D8B4C8EF10F0CAEF10F0E1
:1021900028EF11F0025009E1960E015CD8A0D3EFB0
:1021A00010F0D5EF10F028EF11F0EFEC11F0020E67
:1021B000056E28EF11F0030E0B18D8A4E2EF10F013
:1021C000E4EF10F0F1EF10F0020E0A18D8A4EBEFD4
:1021D00010F0EDEF10F0F1EF10F0030E056E28EFA8
:1021E00011F0040E056E28EF11F08DEC11F07FEC6C
:1021F00012F028EF11F089EC12F0F7EF10F08EECEE
:1022000012F028EF11F00550146E156A1550000AEF
:10221000D8B40DEF11F0F7EF10F01450000AD8B455
:10222000A6EF10F0010AD8B4C2EF10F0030AD8B438
:10223000DBEF10F0010AD8B4F5EF10F0070AD8B4BC
:10224000FBEF10F0010AD8B4FFEF10F0F7EF10F039
:102250001200FF003901A0AF30EF11F032EF11F0A2
:102260008CEF11F03A0157A138EF11F03AEF11F06D
:102270008CEF11F057913901A09F9EEC12F0010EE6
:102280000C6E050E056E0F6AA0EC12F0C30E0D6EFB
:10229000CD0EE82EFED70D2EFCD70000A2EC12F0DA
:1022A000820E0D6EDE0EE82EFED70D2EFCD70F2A05
:1022B000010E0F645EEF11F060EF11F044EF11F0CA
:1022C000020E0E6E450E0D6EAA0EE82EFED70D2ED6
:1022D000FCD70E2EFAD7106AA0EC12F0020E0E6E8A
:1022E000C70E0D6E880EE82EFED70D2EFCD70E2ED3
:1022F000FAD700D0A2EC12F0820E0D6EDE0EE82EA0
:10230000FED70D2EFCD7102A1050D8B48AEF11F04A
:102310008CEF11F06CEF11F0110094EC12F0126AD6
:10232000000E116E0C50D8B498EF11F09AEF11F026
:102330009CEF11F0ADEF11F0C80E00D0E82EFDD7E4
:10234000114A122AB80E115C0B0E1258D8A0ABEF2E
:1023500011F0ADEF11F092EF11F098EC12F096EC55
:1023600012F012004BEC12F07FEC12F092EC12F033
:102370000C50D8B4BEEF11F0C0EF11F0C4EF11F063
:102380008EEC12F0B8EF11F006EC10F0A4EC10F0A7
:102390000D0E186EFC0EE82EFED7182EFCD7B8EFE7
:1023A00011F057EF00F0136E126A0A0E1360DBEFA4
:1023B00011F0DDEF11F0EBEF11F01350010F116E82
:1023C000600047F0F6FF200EF76E000EF86E080072
:1023D0006F00D4FF12F060004BF0BDFF1200136AD3
:1023E0009AEC12F0126A780E116E08EC12F09CEC66
:1023F00012F0126A780E116E08EC12F0132A010E18
:10240000136405EF12F007EF12F0F0EF11F0120075
:102410000EEF12F0C80E00D0E82EFDD71106D8A09E
:102420001206112806E11228D8A419EF12F01BEFAA
:1024300012F00AEF12F012003A01406B506B606B21
:10244000706BBA6ABB6ABC6ABD6ABB94C290C28236
:10245000C284C380C392C394C56A5181120000EE46
:1024600001F00C0EEE6AE806FDE1080ED56E000ED6
:10247000D66E000ED76E0001B2EF11F00B6A0A6A39
:10248000046A000E036E026A000E016E096A086A91
:10249000076A066A12001CEC12F075EC12F098EC58
:1024A00012F09CEC12F096EC12F012009AEC12F082
:1024B000070E126ED00E116E08EC12F09CEC12F0AA
:1024C0001200CAA466EF12F069EF12F0010E6AEF73
:1024D00012F0000E1200CAA270EF12F073EF12F0A9
:1024E000010E74EF12F0000E12003A015681559160
:1024F00057913901A09F908FD28ED28C12003EEC62
:1025000012F0056A96EC12F098EC12F09CEC12F0C6
:10251000120056EC12F096EC12F012000C6A7FECEE
:1025200012F01200BA801200BB921200BD6A1200B3
:10253000BB821200BB841200BB941200BB8212004B
:10254000BB841200BB941200FF00FF00FF00FF00DD
:020000040030CA
:0A000000F8FFFFFF9FFFFFFFFFFF67
:00000001FF
